{
	"contracts/BlockInfo.sol": {
		"BlockInfo": {
			"abi": [
				{
					"inputs": [],
					"name": "getBaseFee",
					"outputs": [
						{
							"internalType": "uint256",
							"name": "",
							"type": "uint256"
						}
					],
					"stateMutability": "view",
					"type": "function"
				},
				{
					"inputs": [],
					"name": "getBlockNumber",
					"outputs": [
						{
							"internalType": "uint256",
							"name": "",
							"type": "uint256"
						}
					],
					"stateMutability": "view",
					"type": "function"
				},
				{
					"inputs": [],
					"name": "getChainId",
					"outputs": [
						{
							"internalType": "uint256",
							"name": "",
							"type": "uint256"
						}
					],
					"stateMutability": "view",
					"type": "function"
				},
				{
					"inputs": [],
					"name": "getCoinbase",
					"outputs": [
						{
							"internalType": "address payable",
							"name": "",
							"type": "address"
						}
					],
					"stateMutability": "view",
					"type": "function"
				},
				{
					"inputs": [],
					"name": "getDifficulty",
					"outputs": [
						{
							"internalType": "uint256",
							"name": "",
							"type": "uint256"
						}
					],
					"stateMutability": "view",
					"type": "function"
				},
				{
					"inputs": [],
					"name": "getGaslimit",
					"outputs": [
						{
							"internalType": "uint256",
							"name": "",
							"type": "uint256"
						}
					],
					"stateMutability": "view",
					"type": "function"
				}
			],
			"devdoc": {
				"kind": "dev",
				"methods": {},
				"version": 1
			},
			"evm": {
				"assembly": "    /* \"contracts/BlockInfo.sol\":59:656  contract BlockInfo {... */\n  mstore(0x40, 0x80)\n  callvalue\n  dup1\n  iszero\n  tag_1\n  jumpi\n  0x00\n  dup1\n  revert\ntag_1:\n  pop\n  dataSize(sub_0)\n  dup1\n  dataOffset(sub_0)\n  0x00\n  codecopy\n  0x00\n  return\nstop\n\nsub_0: assembly {\n        /* \"contracts/BlockInfo.sol\":59:656  contract BlockInfo {... */\n      mstore(0x40, 0x80)\n      callvalue\n      dup1\n      iszero\n      tag_1\n      jumpi\n      0x00\n      dup1\n      revert\n    tag_1:\n      pop\n      jumpi(tag_2, lt(calldatasize, 0x04))\n      shr(0xe0, calldataload(0x00))\n      dup1\n      0x15e812ad\n      eq\n      tag_3\n      jumpi\n      dup1\n      0x3408e470\n      eq\n      tag_4\n      jumpi\n      dup1\n      0x42cbb15c\n      eq\n      tag_5\n      jumpi\n      dup1\n      0xa16963b3\n      eq\n      tag_6\n      jumpi\n      dup1\n      0xb6baffe3\n      eq\n      tag_7\n      jumpi\n      dup1\n      0xd1a82a9d\n      eq\n      tag_8\n      jumpi\n    tag_2:\n      0x00\n      dup1\n      revert\n        /* \"contracts/BlockInfo.sol\":85:170  function getBaseFee() public view returns(uint) {... */\n    tag_3:\n      tag_9\n      tag_10\n      jump\t// in\n    tag_9:\n      mload(0x40)\n      tag_11\n      swap2\n      swap1\n      tag_12\n      jump\t// in\n    tag_11:\n      mload(0x40)\n      dup1\n      swap2\n      sub\n      swap1\n      return\n        /* \"contracts/BlockInfo.sol\":176:261  function getChainId() public view returns(uint) {... */\n    tag_4:\n      tag_13\n      tag_14\n      jump\t// in\n    tag_13:\n      mload(0x40)\n      tag_15\n      swap2\n      swap1\n      tag_12\n      jump\t// in\n    tag_15:\n      mload(0x40)\n      dup1\n      swap2\n      sub\n      swap1\n      return\n        /* \"contracts/BlockInfo.sol\":560:648  function getBlockNumber() public view returns(uint) {... */\n    tag_5:\n      tag_16\n      tag_17\n      jump\t// in\n    tag_16:\n      mload(0x40)\n      tag_18\n      swap2\n      swap1\n      tag_12\n      jump\t// in\n    tag_18:\n      mload(0x40)\n      dup1\n      swap2\n      sub\n      swap1\n      return\n        /* \"contracts/BlockInfo.sol\":468:555  function getGaslimit() public view returns(uint) {... */\n    tag_6:\n      tag_19\n      tag_20\n      jump\t// in\n    tag_19:\n      mload(0x40)\n      tag_21\n      swap2\n      swap1\n      tag_12\n      jump\t// in\n    tag_21:\n      mload(0x40)\n      dup1\n      swap2\n      sub\n      swap1\n      return\n        /* \"contracts/BlockInfo.sol\":371:462  function getDifficulty() public view returns(uint) {... */\n    tag_7:\n      tag_22\n      tag_23\n      jump\t// in\n    tag_22:\n      mload(0x40)\n      tag_24\n      swap2\n      swap1\n      tag_12\n      jump\t// in\n    tag_24:\n      mload(0x40)\n      dup1\n      swap2\n      sub\n      swap1\n      return\n        /* \"contracts/BlockInfo.sol\":267:365  function getCoinbase() public view returns(address payable) {... */\n    tag_8:\n      tag_25\n      tag_26\n      jump\t// in\n    tag_25:\n      mload(0x40)\n      tag_27\n      swap2\n      swap1\n      tag_28\n      jump\t// in\n    tag_27:\n      mload(0x40)\n      dup1\n      swap2\n      sub\n      swap1\n      return\n        /* \"contracts/BlockInfo.sol\":85:170  function getBaseFee() public view returns(uint) {... */\n    tag_10:\n        /* \"contracts/BlockInfo.sol\":127:131  uint */\n      0x00\n        /* \"contracts/BlockInfo.sol\":150:163  block.basefee */\n      basefee\n        /* \"contracts/BlockInfo.sol\":143:163  return block.basefee */\n      swap1\n      pop\n        /* \"contracts/BlockInfo.sol\":85:170  function getBaseFee() public view returns(uint) {... */\n      swap1\n      jump\t// out\n        /* \"contracts/BlockInfo.sol\":176:261  function getChainId() public view returns(uint) {... */\n    tag_14:\n        /* \"contracts/BlockInfo.sol\":218:222  uint */\n      0x00\n        /* \"contracts/BlockInfo.sol\":241:254  block.chainid */\n      chainid\n        /* \"contracts/BlockInfo.sol\":234:254  return block.chainid */\n      swap1\n      pop\n        /* \"contracts/BlockInfo.sol\":176:261  function getChainId() public view returns(uint) {... */\n      swap1\n      jump\t// out\n        /* \"contracts/BlockInfo.sol\":560:648  function getBlockNumber() public view returns(uint) {... */\n    tag_17:\n        /* \"contracts/BlockInfo.sol\":606:610  uint */\n      0x00\n        /* \"contracts/BlockInfo.sol\":629:641  block.number */\n      number\n        /* \"contracts/BlockInfo.sol\":622:641  return block.number */\n      swap1\n      pop\n        /* \"contracts/BlockInfo.sol\":560:648  function getBlockNumber() public view returns(uint) {... */\n      swap1\n      jump\t// out\n        /* \"contracts/BlockInfo.sol\":468:555  function getGaslimit() public view returns(uint) {... */\n    tag_20:\n        /* \"contracts/BlockInfo.sol\":511:515  uint */\n      0x00\n        /* \"contracts/BlockInfo.sol\":534:548  block.gaslimit */\n      gaslimit\n        /* \"contracts/BlockInfo.sol\":527:548  return block.gaslimit */\n      swap1\n      pop\n        /* \"contracts/BlockInfo.sol\":468:555  function getGaslimit() public view returns(uint) {... */\n      swap1\n      jump\t// out\n        /* \"contracts/BlockInfo.sol\":371:462  function getDifficulty() public view returns(uint) {... */\n    tag_23:\n        /* \"contracts/BlockInfo.sol\":416:420  uint */\n      0x00\n        /* \"contracts/BlockInfo.sol\":439:455  block.difficulty */\n      difficulty\n        /* \"contracts/BlockInfo.sol\":432:455  return block.difficulty */\n      swap1\n      pop\n        /* \"contracts/BlockInfo.sol\":371:462  function getDifficulty() public view returns(uint) {... */\n      swap1\n      jump\t// out\n        /* \"contracts/BlockInfo.sol\":267:365  function getCoinbase() public view returns(address payable) {... */\n    tag_26:\n        /* \"contracts/BlockInfo.sol\":310:325  address payable */\n      0x00\n        /* \"contracts/BlockInfo.sol\":344:358  block.coinbase */\n      coinbase\n        /* \"contracts/BlockInfo.sol\":337:358  return block.coinbase */\n      swap1\n      pop\n        /* \"contracts/BlockInfo.sol\":267:365  function getCoinbase() public view returns(address payable) {... */\n      swap1\n      jump\t// out\n        /* \"#utility.yul\":7:84   */\n    tag_35:\n        /* \"#utility.yul\":44:51   */\n      0x00\n        /* \"#utility.yul\":73:78   */\n      dup2\n        /* \"#utility.yul\":62:78   */\n      swap1\n      pop\n        /* \"#utility.yul\":7:84   */\n      swap2\n      swap1\n      pop\n      jump\t// out\n        /* \"#utility.yul\":90:208   */\n    tag_36:\n        /* \"#utility.yul\":177:201   */\n      tag_43\n        /* \"#utility.yul\":195:200   */\n      dup2\n        /* \"#utility.yul\":177:201   */\n      tag_35\n      jump\t// in\n    tag_43:\n        /* \"#utility.yul\":172:175   */\n      dup3\n        /* \"#utility.yul\":165:202   */\n      mstore\n        /* \"#utility.yul\":90:208   */\n      pop\n      pop\n      jump\t// out\n        /* \"#utility.yul\":214:436   */\n    tag_12:\n        /* \"#utility.yul\":307:311   */\n      0x00\n        /* \"#utility.yul\":345:347   */\n      0x20\n        /* \"#utility.yul\":334:343   */\n      dup3\n        /* \"#utility.yul\":330:348   */\n      add\n        /* \"#utility.yul\":322:348   */\n      swap1\n      pop\n        /* \"#utility.yul\":358:429   */\n      tag_45\n        /* \"#utility.yul\":426:427   */\n      0x00\n        /* \"#utility.yul\":415:424   */\n      dup4\n        /* \"#utility.yul\":411:428   */\n      add\n        /* \"#utility.yul\":402:408   */\n      dup5\n        /* \"#utility.yul\":358:429   */\n      tag_36\n      jump\t// in\n    tag_45:\n        /* \"#utility.yul\":214:436   */\n      swap3\n      swap2\n      pop\n      pop\n      jump\t// out\n        /* \"#utility.yul\":442:568   */\n    tag_37:\n        /* \"#utility.yul\":479:486   */\n      0x00\n        /* \"#utility.yul\":519:561   */\n      0xffffffffffffffffffffffffffffffffffffffff\n        /* \"#utility.yul\":512:517   */\n      dup3\n        /* \"#utility.yul\":508:562   */\n      and\n        /* \"#utility.yul\":497:562   */\n      swap1\n      pop\n        /* \"#utility.yul\":442:568   */\n      swap2\n      swap1\n      pop\n      jump\t// out\n        /* \"#utility.yul\":574:678   */\n    tag_38:\n        /* \"#utility.yul\":619:626   */\n      0x00\n        /* \"#utility.yul\":648:672   */\n      tag_48\n        /* \"#utility.yul\":666:671   */\n      dup3\n        /* \"#utility.yul\":648:672   */\n      tag_37\n      jump\t// in\n    tag_48:\n        /* \"#utility.yul\":637:672   */\n      swap1\n      pop\n        /* \"#utility.yul\":574:678   */\n      swap2\n      swap1\n      pop\n      jump\t// out\n        /* \"#utility.yul\":684:826   */\n    tag_39:\n        /* \"#utility.yul\":787:819   */\n      tag_50\n        /* \"#utility.yul\":813:818   */\n      dup2\n        /* \"#utility.yul\":787:819   */\n      tag_38\n      jump\t// in\n    tag_50:\n        /* \"#utility.yul\":782:785   */\n      dup3\n        /* \"#utility.yul\":775:820   */\n      mstore\n        /* \"#utility.yul\":684:826   */\n      pop\n      pop\n      jump\t// out\n        /* \"#utility.yul\":832:1086   */\n    tag_28:\n        /* \"#utility.yul\":941:945   */\n      0x00\n        /* \"#utility.yul\":979:981   */\n      0x20\n        /* \"#utility.yul\":968:977   */\n      dup3\n        /* \"#utility.yul\":964:982   */\n      add\n        /* \"#utility.yul\":956:982   */\n      swap1\n      pop\n        /* \"#utility.yul\":992:1079   */\n      tag_52\n        /* \"#utility.yul\":1076:1077   */\n      0x00\n        /* \"#utility.yul\":1065:1074   */\n      dup4\n        /* \"#utility.yul\":1061:1078   */\n      add\n        /* \"#utility.yul\":1052:1058   */\n      dup5\n        /* \"#utility.yul\":992:1079   */\n      tag_39\n      jump\t// in\n    tag_52:\n        /* \"#utility.yul\":832:1086   */\n      swap3\n      swap2\n      pop\n      pop\n      jump\t// out\n\n    auxdata: 0xa2646970667358221220b7b17ecd2a04a077246f3a78ebab8802dc2911c237f57d2586a746e8f5ea1a6f64736f6c63430008110033\n}\n",
				"bytecode": {
					"linkReferences": {},
					"object": "608060405234801561001057600080fd5b50610211806100206000396000f3fe608060405234801561001057600080fd5b50600436106100625760003560e01c806315e812ad146100675780633408e4701461008557806342cbb15c146100a3578063a16963b3146100c1578063b6baffe3146100df578063d1a82a9d146100fd575b600080fd5b61006f61011b565b60405161007c9190610164565b60405180910390f35b61008d610123565b60405161009a9190610164565b60405180910390f35b6100ab61012b565b6040516100b89190610164565b60405180910390f35b6100c9610133565b6040516100d69190610164565b60405180910390f35b6100e761013b565b6040516100f49190610164565b60405180910390f35b610105610143565b60405161011291906101c0565b60405180910390f35b600048905090565b600046905090565b600043905090565b600045905090565b600044905090565b600041905090565b6000819050919050565b61015e8161014b565b82525050565b60006020820190506101796000830184610155565b92915050565b600073ffffffffffffffffffffffffffffffffffffffff82169050919050565b60006101aa8261017f565b9050919050565b6101ba8161019f565b82525050565b60006020820190506101d560008301846101b1565b9291505056fea2646970667358221220b7b17ecd2a04a077246f3a78ebab8802dc2911c237f57d2586a746e8f5ea1a6f64736f6c63430008110033",
					"opcodes": "PUSH1 0x80 PUSH1 0x40 MSTORE CALLVALUE DUP1 ISZERO PUSH2 0x10 JUMPI PUSH1 0x0 DUP1 REVERT JUMPDEST POP PUSH2 0x211 DUP1 PUSH2 0x20 PUSH1 0x0 CODECOPY PUSH1 0x0 RETURN INVALID PUSH1 0x80 PUSH1 0x40 MSTORE CALLVALUE DUP1 ISZERO PUSH2 0x10 JUMPI PUSH1 0x0 DUP1 REVERT JUMPDEST POP PUSH1 0x4 CALLDATASIZE LT PUSH2 0x62 JUMPI PUSH1 0x0 CALLDATALOAD PUSH1 0xE0 SHR DUP1 PUSH4 0x15E812AD EQ PUSH2 0x67 JUMPI DUP1 PUSH4 0x3408E470 EQ PUSH2 0x85 JUMPI DUP1 PUSH4 0x42CBB15C EQ PUSH2 0xA3 JUMPI DUP1 PUSH4 0xA16963B3 EQ PUSH2 0xC1 JUMPI DUP1 PUSH4 0xB6BAFFE3 EQ PUSH2 0xDF JUMPI DUP1 PUSH4 0xD1A82A9D EQ PUSH2 0xFD JUMPI JUMPDEST PUSH1 0x0 DUP1 REVERT JUMPDEST PUSH2 0x6F PUSH2 0x11B JUMP JUMPDEST PUSH1 0x40 MLOAD PUSH2 0x7C SWAP2 SWAP1 PUSH2 0x164 JUMP JUMPDEST PUSH1 0x40 MLOAD DUP1 SWAP2 SUB SWAP1 RETURN JUMPDEST PUSH2 0x8D PUSH2 0x123 JUMP JUMPDEST PUSH1 0x40 MLOAD PUSH2 0x9A SWAP2 SWAP1 PUSH2 0x164 JUMP JUMPDEST PUSH1 0x40 MLOAD DUP1 SWAP2 SUB SWAP1 RETURN JUMPDEST PUSH2 0xAB PUSH2 0x12B JUMP JUMPDEST PUSH1 0x40 MLOAD PUSH2 0xB8 SWAP2 SWAP1 PUSH2 0x164 JUMP JUMPDEST PUSH1 0x40 MLOAD DUP1 SWAP2 SUB SWAP1 RETURN JUMPDEST PUSH2 0xC9 PUSH2 0x133 JUMP JUMPDEST PUSH1 0x40 MLOAD PUSH2 0xD6 SWAP2 SWAP1 PUSH2 0x164 JUMP JUMPDEST PUSH1 0x40 MLOAD DUP1 SWAP2 SUB SWAP1 RETURN JUMPDEST PUSH2 0xE7 PUSH2 0x13B JUMP JUMPDEST PUSH1 0x40 MLOAD PUSH2 0xF4 SWAP2 SWAP1 PUSH2 0x164 JUMP JUMPDEST PUSH1 0x40 MLOAD DUP1 SWAP2 SUB SWAP1 RETURN JUMPDEST PUSH2 0x105 PUSH2 0x143 JUMP JUMPDEST PUSH1 0x40 MLOAD PUSH2 0x112 SWAP2 SWAP1 PUSH2 0x1C0 JUMP JUMPDEST PUSH1 0x40 MLOAD DUP1 SWAP2 SUB SWAP1 RETURN JUMPDEST PUSH1 0x0 BASEFEE SWAP1 POP SWAP1 JUMP JUMPDEST PUSH1 0x0 CHAINID SWAP1 POP SWAP1 JUMP JUMPDEST PUSH1 0x0 NUMBER SWAP1 POP SWAP1 JUMP JUMPDEST PUSH1 0x0 GASLIMIT SWAP1 POP SWAP1 JUMP JUMPDEST PUSH1 0x0 DIFFICULTY SWAP1 POP SWAP1 JUMP JUMPDEST PUSH1 0x0 COINBASE SWAP1 POP SWAP1 JUMP JUMPDEST PUSH1 0x0 DUP2 SWAP1 POP SWAP2 SWAP1 POP JUMP JUMPDEST PUSH2 0x15E DUP2 PUSH2 0x14B JUMP JUMPDEST DUP3 MSTORE POP POP JUMP JUMPDEST PUSH1 0x0 PUSH1 0x20 DUP3 ADD SWAP1 POP PUSH2 0x179 PUSH1 0x0 DUP4 ADD DUP5 PUSH2 0x155 JUMP JUMPDEST SWAP3 SWAP2 POP POP JUMP JUMPDEST PUSH1 0x0 PUSH20 0xFFFFFFFFFFFFFFFFFFFFFFFFFFFFFFFFFFFFFFFF DUP3 AND SWAP1 POP SWAP2 SWAP1 POP JUMP JUMPDEST PUSH1 0x0 PUSH2 0x1AA DUP3 PUSH2 0x17F JUMP JUMPDEST SWAP1 POP SWAP2 SWAP1 POP JUMP JUMPDEST PUSH2 0x1BA DUP2 PUSH2 0x19F JUMP JUMPDEST DUP3 MSTORE POP POP JUMP JUMPDEST PUSH1 0x0 PUSH1 0x20 DUP3 ADD SWAP1 POP PUSH2 0x1D5 PUSH1 0x0 DUP4 ADD DUP5 PUSH2 0x1B1 JUMP JUMPDEST SWAP3 SWAP2 POP POP JUMP INVALID LOG2 PUSH5 0x6970667358 0x22 SLT KECCAK256 0xB7 0xB1 PUSH31 0xCD2A04A077246F3A78EBAB8802DC2911C237F57D2586A746E8F5EA1A6F6473 PUSH16 0x6C634300081100330000000000000000 "
				},
				"gasEstimates": {
					"creation": {
						"codeDepositCost": "105800",
						"executionCost": "153",
						"totalCost": "105953"
					},
					"external": {
						"getBaseFee()": "314",
						"getBlockNumber()": "358",
						"getChainId()": "336",
						"getCoinbase()": "473",
						"getDifficulty()": "402",
						"getGaslimit()": "380"
					}
				},
				"methodIdentifiers": {
					"getBaseFee()": "15e812ad",
					"getBlockNumber()": "42cbb15c",
					"getChainId()": "3408e470",
					"getCoinbase()": "d1a82a9d",
					"getDifficulty()": "b6baffe3",
					"getGaslimit()": "a16963b3"
				}
			},
			"storageLayout": {
				"storage": [],
				"types": null
			},
			"userdoc": {
				"kind": "user",
				"methods": {},
				"version": 1
			}
		}
	}
}